:020000040800F2
:100000005807002059010008DD080008D908000839
:1000100000000000000000000000000000000000E0
:10002000000000000000000000000000571500085C
:100030000000000000000000090F00087116000811
:1000400089010008000000008901000889010008FA
:1000500089010008D5030008890100080D05000882
:1000600000000000890100088901000889010008DA
:1000700089010008890100088901000800000000CA
:10008000890100080000000000000000890100084C
:100090008901000839170008551700088901000870
:1000A000890100088901000889010008D9180008A1
:1000B0008901000800F002F800F03EF80CA030C8FA
:1000C000083824182D18A246671EAB4654465D46D4
:1000D000AC4201D100F030F87E460F3E0FCCB64660
:1000E0000126334200D0FB1AA246AB4633431847E1
:1000F000301F0000501F0000103A02D378C878C1AA
:10010000FAD8520701D330C830C101D504680C6059
:10011000704700000023002400250026103A01D378
:1001200078C1FBD8520700D330C100D50B607047AF
:100130001FB51FBD10B510BD00F01AF91146FFF72D
:10014000F7FF01F079FD00F032F903B4FFF7F2FF99
:1001500003BC00F037F900000F4880F308880F480F
:100160000168090E0E4A914205D10E480E49016000
:100170000E480F4901600F4880470F480047FEE7CF
:10018000FEE7FEE7FEE7FEE7FEE700000B480C494E
:100190000C4A0D4B70470000580700200400000077
:1001A0001F00000018100240010000000000014084
:1001B00000000000BD160008B5000008580100202E
:1001C00058070020580300205803002030B5441C75
:1001D00003E00178401C00290DD08107F9D10B4BB9
:1001E000DD0104C8D11A91432940FAD0001B0A0648
:1001F00003D0C01E30BD001B30BD0A0401D0801EDC
:1002000030BD0902FCD0401E30BD000001010101DB
:10021000002203098B422CD3030A8B4211D3002303
:100220009C464EE003460B433CD4002243088B42DD
:1002300031D303098B421CD3030A8B4201D394466A
:100240003FE0C3098B4201D3CB01C01A524183095D
:100250008B4201D38B01C01A524143098B4201D317
:100260004B01C01A524103098B4201D30B01C01A42
:100270005241C3088B4201D3CB00C01A52418308BC
:100280008B4201D38B00C01A524143088B4201D3E9
:100290004B00C01A5241411A00D201465241104649
:1002A00070475DE0CA0F00D04942031000D34042BE
:1002B000534000229C4603098B422DD3030A8B42F4
:1002C00012D3FC22890112BA030A8B420CD3890192
:1002D00092118B4208D3890192118B4204D3890178
:1002E0003AD0921100E08909C3098B4201D3CB01B6
:1002F000C01A524183098B4201D38B01C01A52416B
:1003000043098B4201D34B01C01A524103098B426E
:1003100001D30B01C01A5241C3088B4201D3CB0059
:10032000C01A524183088B4201D38B00C01A52413C
:10033000D9D243088B4201D34B00C01A5241411A13
:1003400000D20146634652415B10104601D3404241
:10035000002B00D54942704763465B1000D34042F2
:1003600001B50020C046C04602BD704770477047C7
:10037000754600F023F8AE46050069465346C008AE
:10038000C000854618B020B5FFF700FF60BC00270D
:100390004908B6460026C0C5C0C5C0C5C0C5C0C551
:1003A000C0C5C0C5C0C5403D49008D467047044624
:1003B000C046C0462046FFF7C8FE00000048704710
:1003C000F400002001491820ABBEFEE72600020021
:1003D0007047000070B5012000F0D6F8002839D031
:1003E00000F0C7FA044640202040002813D0042122
:1003F0000920C00600F05CFA0121081AC5B22A469D
:1004000004210920C00600F061FA01201249087099
:10041000402000F085FA20202040002809D001214A
:100420000EA001F0C7FB01200D490870202000F04C
:1004300077FA10202040002809D0012109A001F0FE
:10044000B9FB012009490870102000F069FA012069
:1004500000F094F870BD00001500002054582E00E4
:10046000160000204D41582052542E001700002045
:1004700010B52248224908600020087188710120C7
:10048000C871032048710920C00600F0A7F90021B7
:10049000084601F061F80E21002001F05DF801200E
:1004A00018490860002008710C20487101208871EB
:1004B000084600F077F805201349087000204870BE
:1004C00001208870084600F0ABFC012080030D4934
:1004D0000860002008710C204871012088710846CE
:1004E00000F060F8072008490870002048700120DB
:1004F0008870084600F094FC10BD00000140000028
:100500001C000020240000202C00002010B5012039
:10051000800300F039F8002822D0002111A001F05A
:1005200049FB00F026FA044640202040002803D072
:1005300001210EA001F03EFB20202040002803D026
:1005400001210BA001F036FB10202040002803D031
:10055000012108A001F02EFB0120800300F00EF81D
:1005600010BD0000495251202D20000052582E008D
:1005700054582E004D41582052542E0001494861D4
:10058000704700000004014001460020044A5269FF
:100590000A40002A01D0012000E00020704700003E
:1005A00000040140002120498279002A35D00A4602
:1005B000126803689A430B461A600A465268036839
:1005C0009A430B465A60027951180A6803681A4325
:1005D0000A60154A926803689A43134B9A601A4658
:1005E000D26803689A43104BDA604279102A0CD122
:1005F0001A46926803681A430B4B9A601A46D268EF
:1006000003681A43084BDA600DE007494279511834
:100610000A6803681A430A6005E0027951180A68FB
:1006200003689A430A6070470004014010B509202E
:10063000C00600F07BF83B4800F078F802203A4909
:1006400008600120087100208871C871032048717A
:10065000344800F0C3F804203349086001200871D1
:1006600000208871C871032048710920C00600F07D
:10067000B5F808202C490860012008710020887115
:10068000C871032048710920C00600F0A7F80320B4
:10069000400225490860022008710020887101206D
:1006A000C871032048710920C00600F097F80122A4
:1006B0000921C80600F0DAF801220A210920C00643
:1006C00000F0D4F8E02018490860022008710020EA
:1006D0008871C871032048710920C00600F07EF8B7
:1006E000002207210920C00600F0C0F800220621E0
:1006F0000920C00600F0BAF8002205210920C00632
:1007000000F0B4F8122008490860012008710020A8
:100710008871C871032048710920C00600F05EF896
:1007200010BD0000000400481C00002010B5044665
:100730000920C006844209D10121480400F012FCBE
:1007400000210120400400F00DFC3CE01E488442E2
:1007500008D10121000200F005FC0021200200F078
:1007600001FC30E01948844208D10121000200F068
:10077000F9FB0021200200F0F5FB24E0144884423C
:1007800009D10121080500F0EDFB00210120000541
:1007900000F0E8FB17E00F48844208D10121400235
:1007A00000F0E0FB0021600200F0DCFB0BE00A48F7
:1007B000844208D10121880500F0D4FB00210120EA
:1007C000800500F0CFFB10BD000400480008004881
:1007D000000C00480010004800140048F0B50A461C
:1007E00000210023002400BF3DE001258D402B4661
:1007F00015681D402C469C4234D11579012D02D03C
:100800001579022D16D185684F000326BE40B543E9
:10081000856055794E00B54086683543856085888A
:1008200001268E40B5438580858896798E40B6B284
:100830003543858005684F000326BE40B5430560FB
:1008400015794E00B540066835430560C5684F0010
:100850000326BE40B543C560D5794E00B540C66895
:100860003543C560491C1029BFD3F0BDF0B5002346
:1008700000244D07EE0E1546B5402B46CD10AE00B8
:1008800005462035AD594E07F70E0F26BE40B5433D
:10089000CE10B60007462037BD51CD10AE003D4604
:1008A000AD591D432C46CD10AD003E467451F0BDF0
:1008B00002460020938A0B40002B01D0012000E06B
:1008C000002070470185704781617047002A01D080
:1008D000816100E00185704700BFFEE770470000BE
:1008E0007CB50DA505222946302000F058FA0522D6
:1008F0006946102000F0E1F9002409E029786D1C18
:100900006846005D814201D000207CBD601CC4B2FD
:10091000052CF3DB0120F8E7506F646172000000E2
:1009200070B50446072000F0E6F905462846204346
:1009300005462946272000F00DFA70BD70B5044623
:10094000012000F0D8F905460120A0402843C5B297
:100950002946212000F0FEF970BD10B5FF21E220EC
:1009600000F0F8F910BD10B5FF21E12000F0F2F918
:1009700010BD10B5072000F0BEF910BD10B517204E
:1009800000F0B9F98007800F10BD10B508212020B4
:1009900000F0E0F93F21212000F0DCF903212220C2
:1009A00000F0D8F90321232000F0D4F903212420FA
:1009B00000F0D0F90221252000F0CCF90E212620EC
:1009C00000F0C8F90021272000F0C4F900213120EF
:1009D00000F0C0F90021322000F0BCF900213320E2
:1009E00000F0B8F90021342000F0B4F900213520DE
:1009F00000F0B0F90021362000F0ACF900213C20D5
:100A000000F0A8F91D2000F076F90446002C06D16C
:100A100000F046F800213D2000F09CF903E00021A1
:100A20003D2000F097F9FFF798FFFFF79CFF70203B
:100A3000FFF776FF10210920C006FFF745FF10BD24
:100A400070B506460C46072000F055F90E21084007
:100A50004510062D0EDA0949485D00F04CF920706A
:100A60002078002804D022783146612000F025F952
:100A7000284670BD00202070FF20FAE70020000803
:100A800010B51D2000F037F90446022120468843A6
:100A900004460220044321463D2000F05BF910BDCE
:100AA00010B57321502000F055F910BD70B5044603
:100AB0000D46230001F0B2F8070607292A2B2C0562
:100AC000350000BF00BF032000F015F9401CC6B27E
:100AD000AD1910210920C006FFF7F4FE1249095D87
:100AE00020221143084600F01BF900BF28786D1E34
:100AF00000F016F93046711ECEB20028F6D1102152
:100B00000920C006FFF7E0FE0CE000BF00BF00BFF9
:100B10002978054A125D20231A43104600F01AF97D
:100B200000E000BF00BF70BD0620000810B50446FD
:100B3000A01EC1B2232000F00DF910BD70B505460E
:100B4000002000F0D8F804460C21204688430446D3
:100B50002846084304432146202000F0FBF870BDDE
:100B600010B51D2000F0C7F8044604212046884334
:100B700004460420044321463D2000F0EBF810BD5C
:100B800070B50546062000F0B6F804462821204638
:100B9000884304462046284304462146262000F088
:100BA000D9F870BD70B506460C462046B040C4B2B8
:100BB0001C2000F0A0F805462846A043054628461C
:100BC0002043054629463C2000F0C4F870BD70B5AE
:100BD0000546002000F08FF8044664086400E8072A
:100BE000C00F04432146202000F0B4F870BD70B55A
:100BF0000546002000F07FF80446022D02D10220B5
:100C0000044303E002212046884304462146202075
:100C100000F0A0F870BD10B504462146252000F074
:100C200099F810BDF8B504460E461746022000F0AC
:100C300062F80121A14008438506AD0E2946222015
:100C400000F088F8B906890E0D4A125D20231A4378
:100C5000104600F07FF8012000F04DF80546012E07
:100C600004D10120A0402843C5B204E00120A040E7
:100C7000294681430D462946212000F06BF8F8BD36
:100C80000020000870B50546062000F034F8044640
:100C90000621204688430446204628430446214630
:100CA000262000F057F870BD70B504460D462A4660
:100CB0002146A92000F073F870BDF8B507460D462F
:100CC000164610210920C006FFF7FCFD384600F04B
:100CD00027F80090002405E0FF2000F021F82855B7
:100CE000601CC4B2B442F7DB10210920C006FFF734
:100CF000EBFD0098F8BD70B5044610210920C00630
:100D0000FFF7E0FD204600F00BF8002000F008F8A7
:100D1000054610210920C006FFF7D6FD284670BD04
:100D200010B5044600BF0221094800F0C9FB0028A5
:100D3000F9D02146064800F009FC00BF0121044813
:100D400000F0BEFB0028F9D0014800F0EFFB10BD19
:100D50000030014070B504460D4610210920C00640
:100D6000FFF7B0FD2046FFF7DBFF0646E12C0FD072
:100D7000E22C0DD0E32C0BD0FF2C09D0602C03D03B
:100D80002846FFF7CDFF03E02846FFF7C9FF0646D8
:100D900010210920C006FFF797FD304670BDF8B559
:100DA00007460C46154610210920C006FFF78AFDAC
:100DB0003846FFF7B5FF0090002605E02078641C58
:100DC000FFF7AEFF701CC6B2AE42F7DB1021092060
:100DD000C006FFF779FD0098F8BD000010B51B2094
:100DE0000E4908700220487001208870084600F003
:100DF00017F81520094908700320487001208870F1
:100E0000084600F00DF816200449087002204870CA
:100E100001208870084600F003F810BD2C00002067
:100E200000218278002A27D0184A03231B02D218F7
:100E300003789B109B00D15802789207D30EFF22B3
:100E40009A400B469343194642789207120E037854
:100E50009B07DB0E9A4011430C4A03231B02D21856
:100E600003789B109B00D1500278D306DB0E012241
:100E70009A40064B1A6007E00278D306DB0E012287
:100E80009A40024B80331A607047000000E100E096
:100E900010B5002819DA1A4A03071B0F083B9B08F4
:100EA0009B00D2588307DC0EFF23A3409A438B0795
:100EB0001B0E8407E40EA3401A43114B0407240FB2
:100EC000083CA408A4001A5118E00E4A03231B0290
:100ED000D21883089B00D2588307DC0EFF23A3405F
:100EE0009A438B071B0E8407E40EA3401A43054B5D
:100EF000032424021B198408A4001A5110BD000009
:100F00001CED00E000E100E0704700000C4949687A
:100F10000122920391430A4A51601146496882B204
:100F20001143074A51601146096B92159143044AD7
:100F300011631146096B020C1143014A116370479A
:100F400000100240002905D0054A52690243044BB3
:100F50005A6104E0024A52698243014B5A61704768
:100F600000100240002905D0054A926A0243044B52
:100F70009A6204E0024A926A8243014B9A62704785
:100F800000100240002905D0054AD2690243044BF3
:100F9000DA6104E0024AD2698243014BDA617047A8
:100FA00000100240002905D0054A92690243044B13
:100FB0009A6104E0024A92698243014B9A61704748
:100FC0000010024010B500F03DF8012000F0D6F905
:100FD00000F022FA194908700846007801282BD140
:100FE000002000F0BBF9002000F0D0F90020FFF74E
:100FF0008DFF0121C904C81000F0EEF9012000F0B6
:10100000D7F900BF192000F07DF90028FAD002209E
:1010100000F0F4F900BF00F099F90828FBD1012194
:1010200003204004FFF78EFF01210548FFF7BAFFB8
:1010300001210802FFF7A6FF10BD00002F000020CD
:101040000158060019480068012108431749086043
:101050000846406816490840144948600846006838
:1010600014490840114908600846006801218904B4
:1010700088430E490860084640683F2109048843B8
:101080000A4948600846C06A00090001C86208466B
:10109000006B09490840054908630846406B400851
:1010A0004000486300208860704700000010024044
:1010B0000CB8FF08FFFFF6FEACFEF0FFFEB50446DD
:1010C000002500260020029001900090002786480D
:1010D00040680C2108400546002D06D0042D07D09D
:1010E000082D08D00C2D2CD128E0804820602BE062
:1010F0007E48206028E07C4840680F218904084031
:101100000646794840680321C90308400290B00CA4
:10111000861C0298002803D17548374647430BE0E8
:101120007148C06A0007000F401C01906F48019988
:10113000FFF76EF870430746276005E06D482060B2
:1011400002E06A48206000BF00BF67484068F021A5
:10115000084005462D096848405D009020680099C8
:10116000C8406060604840680721090208400546A1
:101170002D0A6148405D009061680098C140A160FF
:101180005948006BFF2101310840884202D05B487A
:10119000E0600DE05448406801218903084088421E
:1011A00003D0A0684008E06002E0A0688008E0602A
:1011B0004D48006B40210840402802D05048206133
:1011C00002E00120C00320614748006B1021084065
:1011D000102802D04548606101E020686061424803
:1011E000006B8007800F002802D1A068A06119E081
:1011F0003D48006B8007800F012802D12068A06164
:1012000010E03948006B8007800F022802D180036C
:10121000A06107E03448006B8007800F032801D1EC
:101220003248A0613048006B0321090408400028BF
:1012300002D1A068E06120E02B48006B0321090483
:10124000084001210904884202D12068E06114E0CD
:101250002548006B03210904084001214904884204
:1012600002D18010E06108E01F48006B03210904EF
:101270000840884201D11D48E0611B48006B0321F2
:1012800089040840002802D1A068206220E01648A6
:10129000006B03218904084001218904884202D19E
:1012A0002068206214E01048006B03218904084084
:1012B0000121C904884202D10011206208E00A48D5
:1012C000006B032189040840884201D1074820624D
:1012D0000548006B80210840802802D005486062E4
:1012E00000E06762FEBD00000010024000127A00BC
:1012F00000093D00006CDC0260000020809FD500EA
:101300001280000010B50246002100230020511178
:10131000002902D10C4C23680BE0012902D10A4CB0
:10132000236A06E0022902D1074C636A01E0064CF9
:10133000636BD106C90E01248C401C40002C01D0E7
:10134000012000E0002010BD00100240024840686B
:101350000C210840704700000010024001460020A8
:10136000054A5068F02302469A43104602460A4353
:101370001046014A50607047001002400021024AA6
:10138000917011468870704700100240014600209D
:10139000064A506807231B0202469A43104602463B
:1013A0000A431046014A5060704700000010024096
:1013B000002807D007490968012212061143054A8F
:1013C000116006E003490968012212069143014AAF
:1013D0001160704700100240074A52687B23DB030C
:1013E0009A43054B5A601A46526803460B431A4308
:1013F000014B5A6070470000001002400146002077
:10140000044A50688008800002460A431046014A98
:10141000506070470010024038B500200090002452
:10142000002500BF1120FFF76DFF05460098401C06
:101430000090052109030098884201D0002DF1D0C9
:101440001120FFF75FFF002801D0012400E00024F5
:10145000204638BD002904D0028840231A43028068
:1014600003E00288014B1A4002807047BFFF000072
:1014700010B5002010490880FF2005304880072063
:10148000000288800020C880088101204002488135
:10149000082088810020C88107200882074800F0C2
:1014A00019F801210903054800F046F80121034815
:1014B000FFF7D0FF10BD0000C00000200030014049
:1014C0000246002013890B40002B01D0012000E0D0
:1014D0000020704710B500220288C1239B011A40EA
:1014E0000B88CC892343CC8823430C8923434C8924
:1014F00023438C8923431A4302808288084B1A4075
:101500008B881A4382800B8A03820288054B1A401B
:101510004B881A430280838B034C2340838310BD86
:10152000FFF00000FBFF0000FFF700000146002273
:101530000A460C32107870478288034B1A4082802A
:1015400082880A4382807047FFEF00000022024633
:101550000C3211707047704730B500228B071C0F9A
:101560000F23A3401A460B4B8C10A4001B59934326
:10157000084C8D10AD00635123468C10A4001B59FC
:101580008C07250F0446AC402343024C8D10AD0060
:10159000635130BD080001400CB50020019000905F
:1015A000314800680121090408432F49086000BF41
:1015B0002D48006801214904084000900198401C12
:1015C00001900098002804D1052109030198884260
:1015D000EED125480068012149040840002802D0C6
:1015E0000120009001E0002000900098012839D1EE
:1015F00011201E4908601C4840681B494860084685
:1016000040684860084640687F21C90388431649FE
:10161000486008464068112109040843124948609F
:10162000084600680121090608430F49086000BF09
:101630000D4800680121490608400028F8D00A48F2
:1016400040688008800008494860084640680221D8
:1016500008430549486000BF034840680C21084022
:101660000828F9D10CBD0000001002400020024003
:1016700010B50F480088401C0D49088008460088B6
:101680007D21C900884211D102210A48FFF710F9D3
:101690000121081AC4B2224602210648FFF716F9B2
:1016A00000200349088001200349087010BD000094
:1016B00018000020000400481400002010B51B484A
:1016C0000068012108431949086008464068184924
:1016D0000840164948600846006816490840134902
:1016E0000860084600680121890488430F490860A2
:1016F000084640683F21090488430C494860084671
:10170000C06A00090001C8620846006BFF2154311D
:101710008843064908630846406B40084000486318
:1017200000208860FFF738FF10BD00000010024065
:101730000CB8FF08FFFFF6FE10B50121044800F0C9
:1017400033F8002803D00121014800F01BF810BD38
:101750000044014010B50121084800F025F8002898
:101760000AD00120064908700121044800F00AF857
:101770000021024800F00AF810BD000000480140B6
:101780000C000020CA43028270470000002904D0E8
:10179000028801231A43028003E00288014B1A40A9
:1017A00002807047FEFF000030B502460020002393
:1017B0000024158A0D402B4695890D402C46002BA0
:1017C00003D0002C01D0012000E0002030BD002A11
:1017D00003D083890B43838102E083898B43838118
:1017E0007047000000220288154B984206D0012362
:1017F0009B07984202D0134B984203D1124B1A40D8
:101800004B881A43114B984203D0114B1A400B8955
:101810001A4302804B68C3620B880385084B9842C9
:1018200008D00C4B984205D00B4B984202D00B4B82
:10183000984201D18B7A038601238382704700008E
:10184000002C0140000400408FFF00000010004009
:10185000FFFC0000004001400044014000480140FE
:1018600010B50C480C490880002048807D20C0003D
:1018700048600020088188720848FFF7B3FF012202
:1018800011460648FFF7A3FF01210448FFF77EFF3A
:1018900010BD0000FF7C00009C00002000440140BF
:1018A00010B5FF2001300949088000204880084811
:1018B000006848600020088188720648FFF792FFA0
:1018C000012211460348FFF782FF10BD9C00002053
:1018D000080000200048014010B52349234800F0CB
:1018E0009BF8002816D0214800F05AF94106490E0D
:1018F0001F480488601C1E4A10801E48015510466F
:1019000000881D490978884204D1002216491748E9
:1019100000F0A9F81949154800F07EF8002822D0F7
:1019200017480478601C164A10701648015D0F486D
:1019300000F03BF900BF40210C4800F063F800289C
:10194000F9D00F48007810490978884207D1002063
:101950000B49087000220949044800F084F807493F
:10196000024800F013F810BD0501050000380140E1
:1019700048000020D2000020460000200701070098
:1019800047000020300000204500002010B5002353
:1019900000220B0C01249C402246026210BD00294B
:1019A00004D0026801231A43026003E0026852086F
:1019B000520002607047000010B5E12040020D495E
:1019C0000860002048608860C86048610C20086199
:1019D000094800F069F801220849074800F043F877
:1019E00000220749044800F03EF801210248FFF7B1
:1019F000D6FF10BDA80000200038014005010500F9
:101A00000701070002460020D3690B40002B01D0DC
:101A1000012000E00020704770B502460B4600240C
:101A20000021002500201E04350ED9B201268E406B
:101A30003146012D02D11668314006E0022D02D157
:101A40005668314001E0966831401C0C0126A640E2
:101A50003446D6693440002903D0002C01D001203F
:101A600000E0002070BDF8B5034600240026009673
:101A70000025002018460E04340ECEB20096012731
:101A8000009EB7403D46022C01D1001D02E0032C10
:101A900000D10830002A03D006682E43066002E019
:101AA0000668AE430660F8BDF0B58BB004460D463F
:101AB000002700200A90002620684008400020608F
:101AC000666803210903304688430646A868064332
:101AD000666026682D480640E968686808432969F9
:101AE000084306432660A66803210902304688435E
:101AF000064668690643A6606846FFF7DFFA244891
:101B0000844202D106980A900DE02248844202D114
:101B100007980A9007E02048844202D108980A906A
:101B200001E002980A9020680121C90308400028BA
:101B30000CD029680A9A5000FEF76AFB074629680C
:101B40000A9A5000FEF764FB0E4609E029680A98DD
:101B5000FEF75EFB074629680A98FEF759FB0E461A
:101B600028684008B04200D87F1C20680121C903C2
:101B70000840002806D03807460F38460749084075
:101B800030430746A7810BB0F0BD0000F3E9FFFF2B
:101B9000003801400044004000480040F0FF0000D1
:101BA0000146888CC005C00D7047CA05D20D02855C
:101BB0007047000070B505460E46002404E0002082
:101BC00013490855601CC4B2142CF8DB002404E04F
:101BD000285D0F490855601CC4B22846FEF7F6FA86
:101BE000A042F5D8002E0CD02846FEF7EFFA08499F
:101BF0000D220A542846FEF7E9FA401C04490A223D
:101C00000A54012203490448FFF72DFF70BD00006C
:101C100030000020070107000038014030B474464E
:101C2000641E2578641CAB4204D3635D5B00E3183B
:101C300030BC18471D46F8E70025FFF7C3F97D21A2
:101C4000C900D2480068FEF7E3FA0446601ED04996
:101C5000884200D90CE0601ECE4948610321081F6C
:101C6000FFF716F90020CB4988610720086100BF03
:101C7000FEF7DCFC01220221C748FEF727FE002206
:101C800004210920C006FEF721FE002208210920B8
:101C9000C006FEF71BFEFFF7E3FDFFF701FEFFF7AF
:101CA0008BFEFFF7E5FBFFF799F8FEF7E1FB02215A
:101CB0000920C006FEF706FE10210920C006FEF727
:101CC00003FE0020B5490870B548B64908600846CB
:101CD0000068B5494860B548FFF784FD0121B34865
:101CE000FFF754FD00BFAD4800780028FBD000206E
:101CF000AA4908700121AEA0FFF75CFF0021AFA048
:101D0000FFF758FFFEF7ECFD002805D10121ADA03B
:101D1000FFF750FF00BFFEE70121ACA0FFF74AFF2D
:101D2000FEF733FE2820FEF776FF0820FEF728FF97
:101D30000C20FEF703FF0520FEF7F8FEA449012062
:101D4000FEF7B4FE022201210846FEF76BFF0620D3
:101D5000FEF798FF0020FEF7F1FD0120FEF737FFA8
:101D6000FEF7FEFEFEF78CFE01210020FEF71AFFB3
:101D700001210846FEF716FF7020FEF7D1FD022074
:101D8000FEF735FF002085490870F9208549086075
:101D900008460068844948608448FFF723FD012114
:101DA0008248FFF7F3FC00BF7C4800780028FBD096
:101DB00000207A4908701D20FEF79DFF0546282166
:101DC0008448FFF7F2FE00BF40218248FFF71AFE69
:101DD0000028F9D029467F48FFF7E7FE00BF4021E1
:101DE0007C48FFF70FFE0028F9D029217948FFF73A
:101DF000DCFE00BF40217748FFF704FE0028F9D041
:101E00000120FEF778FF05465B217248FFF7CDFE03
:101E100000BF40216F48FFF7F5FD0028F9D02946A3
:101E20006C48FFF7C2FE00BF40216A48FFF7EAFD99
:101E30000028F9D05D216748FFF7B7FE00BF4021B9
:101E40006448FFF7DFFD0028F9D002210920C00611
:101E5000FEF73AFD4120604908705A2048705F48FB
:101E600001785D48FEF720FF1720FEF744FF054686
:101E70005B215848FFF799FE00BF40215548FFF706
:101E8000C1FD0028F9D029465248FFF78EFE00BF59
:101E900040215048FFF7B6FD0028F9D05D214D489C
:101EA000FFF783FE00BF40214A48FFF7ABFD002843
:101EB000F9D069E04A480078002802D0002048495B
:101EC000087048480078002853D0012146A0FFF749
:101ED00071FEFEF753FD012848D0404801783E4886
:101EE000FEF7E2FE1720FEF706FF05465B213948A4
:101EF000FFF75BFE00BF40213648FFF783FD002857
:101F0000F9D029463348FFF750FE00BF4021314841
:101F1000FFF778FD0028F9D05D212E48FFF745FE38
:101F200000BF40212B48FFF76DFD0028F9D02B4959
:101F30002E48FEF785FD2E4908702C48407826492A
:101F400008702A48007848702848007837280DD152
:101F500008210920C006FEF7ABFC0121081AC4B213
:101F6000224608210920C006FEF7B0FC00201D49CA
:101F7000087020480078002806D001211EA0FFF735
:101F800019FE00201B49087094E700004C00002057
:101F9000FFFFFF0000E000E0000400480C0000200C
:101FA0003D490000080000209C000020004801403E
:101FB00048656C6C6F2E53746D33320043686563F3
:101FC0006B3A20004641494C000000004F4B000096
:101FD0001A20000800380140020000207100002093
:101FE000140000201500002052780000000000209E
:101FF0000400002016000020666C61672054780001
:102000001112131415160A0B0C0D0E0F10111213CA
:102010001415160A0B0C0D0E0F104F4241524100C1
:10202000402000080000002074000000F8000008B4
:10203000B420000874000020E40600001401000829
:1020400000000000000000000100000000000F0080
:10205000F00001000000000000000000000000008F
:102060000000000000000000000000000000000070
:1020700048656C6C6F2E2053746D333246303330AC
:1020800046340A0D00142000000000000048E8015A
:102090000000000000000000010203040607080918
:1020A00000000000010203040102030406070809FE
:0420B000000200002A
:04000005080000B53A
:00000001FF
